{
  "contractName": "CreateBet",
  "abi": [
    {
      "inputs": [],
      "stateMutability": "payable",
      "type": "constructor",
      "payable": true
    },
    {
      "inputs": [],
      "name": "_owner",
      "outputs": [
        {
          "internalType": "address",
          "name": "",
          "type": "address"
        }
      ],
      "stateMutability": "view",
      "type": "function",
      "constant": true
    },
    {
      "inputs": [
        {
          "internalType": "uint256",
          "name": "",
          "type": "uint256"
        }
      ],
      "name": "bets",
      "outputs": [
        {
          "internalType": "contract yesnobet",
          "name": "_bet",
          "type": "address"
        },
        {
          "internalType": "address payable",
          "name": "_admin",
          "type": "address"
        },
        {
          "internalType": "uint256",
          "name": "_yesplayers",
          "type": "uint256"
        },
        {
          "internalType": "uint256",
          "name": "_noplayers",
          "type": "uint256"
        },
        {
          "internalType": "uint256",
          "name": "_genesisvotes",
          "type": "uint256"
        },
        {
          "internalType": "uint256",
          "name": "_yesvotes",
          "type": "uint256"
        },
        {
          "internalType": "uint256",
          "name": "_novotes",
          "type": "uint256"
        },
        {
          "internalType": "uint256",
          "name": "_yeswagers",
          "type": "uint256"
        },
        {
          "internalType": "uint256",
          "name": "_nowagers",
          "type": "uint256"
        },
        {
          "internalType": "string",
          "name": "_proposition",
          "type": "string"
        },
        {
          "internalType": "int256",
          "name": "_outcome",
          "type": "int256"
        },
        {
          "internalType": "uint256",
          "name": "_id",
          "type": "uint256"
        },
        {
          "internalType": "bool",
          "name": "_resolver",
          "type": "bool"
        },
        {
          "internalType": "address payable",
          "name": "_betaddress",
          "type": "address"
        }
      ],
      "stateMutability": "view",
      "type": "function",
      "constant": true
    },
    {
      "inputs": [],
      "name": "bettorindex",
      "outputs": [
        {
          "internalType": "uint256",
          "name": "",
          "type": "uint256"
        }
      ],
      "stateMutability": "view",
      "type": "function",
      "constant": true
    },
    {
      "inputs": [],
      "name": "index",
      "outputs": [
        {
          "internalType": "uint256",
          "name": "",
          "type": "uint256"
        }
      ],
      "stateMutability": "view",
      "type": "function",
      "constant": true
    },
    {
      "inputs": [],
      "name": "isOwner",
      "outputs": [
        {
          "internalType": "bool",
          "name": "",
          "type": "bool"
        }
      ],
      "stateMutability": "view",
      "type": "function",
      "constant": true
    },
    {
      "inputs": [
        {
          "internalType": "uint256",
          "name": "",
          "type": "uint256"
        }
      ],
      "name": "stats",
      "outputs": [
        {
          "internalType": "uint256",
          "name": "_betbalance",
          "type": "uint256"
        },
        {
          "internalType": "uint256",
          "name": "_yesodds",
          "type": "uint256"
        },
        {
          "internalType": "uint256",
          "name": "_noodds",
          "type": "uint256"
        },
        {
          "internalType": "uint256",
          "name": "_genesiscost",
          "type": "uint256"
        }
      ],
      "stateMutability": "view",
      "type": "function",
      "constant": true
    },
    {
      "inputs": [
        {
          "internalType": "uint256",
          "name": "",
          "type": "uint256"
        }
      ],
      "name": "tests",
      "outputs": [
        {
          "internalType": "uint256",
          "name": "_betindex",
          "type": "uint256"
        },
        {
          "internalType": "uint256",
          "name": "_bettorindex",
          "type": "uint256"
        },
        {
          "internalType": "uint256",
          "name": "_specificindex",
          "type": "uint256"
        },
        {
          "internalType": "address",
          "name": "_contract",
          "type": "address"
        },
        {
          "internalType": "address",
          "name": "_player",
          "type": "address"
        },
        {
          "internalType": "uint256",
          "name": "_playeryesvotes",
          "type": "uint256"
        },
        {
          "internalType": "uint256",
          "name": "_playeryesbalance",
          "type": "uint256"
        },
        {
          "internalType": "uint256",
          "name": "_playernovotes",
          "type": "uint256"
        },
        {
          "internalType": "uint256",
          "name": "_playernobalance",
          "type": "uint256"
        },
        {
          "internalType": "uint256",
          "name": "_time",
          "type": "uint256"
        },
        {
          "internalType": "bool",
          "name": "_isyes",
          "type": "bool"
        },
        {
          "internalType": "bool",
          "name": "_isno",
          "type": "bool"
        }
      ],
      "stateMutability": "view",
      "type": "function",
      "constant": true
    },
    {
      "inputs": [
        {
          "internalType": "string",
          "name": "_createproposition",
          "type": "string"
        },
        {
          "internalType": "uint256",
          "name": "_genesisodds",
          "type": "uint256"
        },
        {
          "internalType": "uint256",
          "name": "_gasfee",
          "type": "uint256"
        },
        {
          "internalType": "uint256",
          "name": "_adminfee",
          "type": "uint256"
        },
        {
          "internalType": "uint256",
          "name": "_genesiscost",
          "type": "uint256"
        }
      ],
      "name": "createyesnobet",
      "outputs": [],
      "stateMutability": "payable",
      "type": "function",
      "payable": true
    },
    {
      "inputs": [
        {
          "internalType": "uint256",
          "name": "_index",
          "type": "uint256"
        }
      ],
      "name": "updatestats",
      "outputs": [],
      "stateMutability": "nonpayable",
      "type": "function"
    },
    {
      "inputs": [
        {
          "internalType": "uint256",
          "name": "_betindex",
          "type": "uint256"
        },
        {
          "internalType": "uint256",
          "name": "_bettorindex",
          "type": "uint256"
        },
        {
          "internalType": "uint256",
          "name": "_specificindex",
          "type": "uint256"
        },
        {
          "internalType": "address",
          "name": "_contract",
          "type": "address"
        },
        {
          "internalType": "address",
          "name": "_player",
          "type": "address"
        },
        {
          "internalType": "uint256",
          "name": "_yesvotes",
          "type": "uint256"
        },
        {
          "internalType": "uint256",
          "name": "_yesbalance",
          "type": "uint256"
        },
        {
          "internalType": "uint256",
          "name": "_novotes",
          "type": "uint256"
        },
        {
          "internalType": "uint256",
          "name": "_nobalance",
          "type": "uint256"
        },
        {
          "internalType": "bool",
          "name": "_yes",
          "type": "bool"
        },
        {
          "internalType": "bool",
          "name": "_no",
          "type": "bool"
        }
      ],
      "name": "test",
      "outputs": [],
      "stateMutability": "nonpayable",
      "type": "function"
    },
    {
      "inputs": [
        {
          "internalType": "uint256",
          "name": "_index",
          "type": "uint256"
        }
      ],
      "name": "betyes",
      "outputs": [],
      "stateMutability": "payable",
      "type": "function",
      "payable": true
    },
    {
      "inputs": [
        {
          "internalType": "uint256",
          "name": "_index",
          "type": "uint256"
        }
      ],
      "name": "betno",
      "outputs": [],
      "stateMutability": "payable",
      "type": "function",
      "payable": true
    },
    {
      "inputs": [
        {
          "internalType": "uint256",
          "name": "_index",
          "type": "uint256"
        },
        {
          "internalType": "int256",
          "name": "_outcome",
          "type": "int256"
        }
      ],
      "name": "setoracle",
      "outputs": [],
      "stateMutability": "nonpayable",
      "type": "function"
    },
    {
      "inputs": [
        {
          "internalType": "uint256",
          "name": "_index",
          "type": "uint256"
        }
      ],
      "name": "resolve",
      "outputs": [],
      "stateMutability": "nonpayable",
      "type": "function"
    },
    {
      "inputs": [
        {
          "internalType": "uint256",
          "name": "_index",
          "type": "uint256"
        },
        {
          "internalType": "uint256",
          "name": "_player",
          "type": "uint256"
        }
      ],
      "name": "revertno",
      "outputs": [],
      "stateMutability": "nonpayable",
      "type": "function"
    },
    {
      "inputs": [
        {
          "internalType": "uint256",
          "name": "_index",
          "type": "uint256"
        },
        {
          "internalType": "uint256",
          "name": "_player",
          "type": "uint256"
        }
      ],
      "name": "revertyes",
      "outputs": [],
      "stateMutability": "nonpayable",
      "type": "function"
    },
    {
      "inputs": [
        {
          "internalType": "uint256",
          "name": "_index",
          "type": "uint256"
        }
      ],
      "name": "payyes",
      "outputs": [],
      "stateMutability": "nonpayable",
      "type": "function"
    },
    {
      "inputs": [
        {
          "internalType": "uint256",
          "name": "_index",
          "type": "uint256"
        }
      ],
      "name": "payno",
      "outputs": [],
      "stateMutability": "nonpayable",
      "type": "function"
    },
    {
      "inputs": [
        {
          "internalType": "uint256",
          "name": "_index",
          "type": "uint256"
        }
      ],
      "name": "paypush",
      "outputs": [],
      "stateMutability": "nonpayable",
      "type": "function"
    },
    {
      "inputs": [],
      "name": "validatemaster",
      "outputs": [
        {
          "internalType": "address",
          "name": "",
          "type": "address"
        }
      ],
      "stateMutability": "view",
      "type": "function",
      "constant": true
    }
  ],
  "bytecode": "0x608060405260006005556000600655336000806101000a81548173ffffffffffffffffffffffffffffffffffffffff021916908373ffffffffffffffffffffffffffffffffffffffff16021790555033600160006101000a81548173ffffffffffffffffffffffffffffffffffffffff021916908373ffffffffffffffffffffffffffffffffffffffff1602179055506151f78061009e6000396000f3fe6080604052600436106200013a5760003560e01c806384f95a4111620000af578063ad217ae5116200006d578063ad217ae51462000798578063b2bdfa7b1462000800578063ba9ac4c8146200085a578063d1fa8b4f146200088b578063de22c8d414620008bc576200013a565b806384f95a4114620005b05780638a874dea14620005f95780638f32d59b1462000638578063929bd6aa146200066a578063acfe3988146200073e576200013a565b806341e3ac7e11620000fd57806341e3ac7e14620003c85780634f896d4f14620003f6578063507b93281462000435578063550692d7146200047e578063658ffb4f1462000567576200013a565b806315dbfc7b146200013f5780631c14bc82146200017e57806322af00fa14620001bd5780632986c0e5146200035b5780633297008e1462000389575b600080fd5b3480156200014c57600080fd5b506200017c600480360360208110156200016557600080fd5b8101908080359060200190929190505050620009bc565b005b3480156200018b57600080fd5b50620001bb60048036036020811015620001a457600080fd5b8101908080359060200190929190505050620010bf565b005b348015620001ca57600080fd5b50620001fa60048036036020811015620001e357600080fd5b8101908080359060200190929190505050620012de565b604051808f73ffffffffffffffffffffffffffffffffffffffff1673ffffffffffffffffffffffffffffffffffffffff1681526020018e73ffffffffffffffffffffffffffffffffffffffff1673ffffffffffffffffffffffffffffffffffffffff1681526020018d81526020018c81526020018b81526020018a815260200189815260200188815260200187815260200180602001868152602001858152602001841515151581526020018373ffffffffffffffffffffffffffffffffffffffff1673ffffffffffffffffffffffffffffffffffffffff168152602001828103825287818151815260200191508051906020019080838360005b8381101562000312578082015181840152602081019050620002f5565b50505050905090810190601f168015620003405780820380516001836020036101000a031916815260200191505b509f5050505050505050505050505050505060405180910390f35b3480156200036857600080fd5b506200037362001453565b6040518082815260200191505060405180910390f35b3480156200039657600080fd5b50620003c660048036036020811015620003af57600080fd5b810190808035906020019092919050505062001459565b005b348015620003d557600080fd5b50620003e062001b5f565b6040518082815260200191505060405180910390f35b3480156200040357600080fd5b5062000433600480360360208110156200041c57600080fd5b810190808035906020019092919050505062001b65565b005b3480156200044257600080fd5b506200047c600480360360408110156200045b57600080fd5b81019080803590602001909291908035906020019092919050505062001e01565b005b62000565600480360360a08110156200049657600080fd5b8101908080359060200190640100000000811115620004b457600080fd5b820183602082011115620004c757600080fd5b80359060200191846001830284011164010000000083111715620004ea57600080fd5b91908080601f016020809104026020016040519081016040528093929190818152602001838380828437600081840152601f19601f820116905080830192505050505050509192919290803590602001909291908035906020019092919080359060200190929190803590602001909291905050506200244a565b005b3480156200057457600080fd5b50620005ae600480360360408110156200058d57600080fd5b8101908080359060200190929190803590602001909291905050506200289e565b005b348015620005bd57600080fd5b50620005f760048036036040811015620005d657600080fd5b81019080803590602001909291908035906020019092919050505062002a13565b005b3480156200060657600080fd5b5062000636600480360360208110156200061f57600080fd5b81019080803590602001909291905050506200305c565b005b3480156200064557600080fd5b50620006506200371e565b604051808215151515815260200191505060405180910390f35b3480156200067757600080fd5b506200073c60048036036101608110156200069157600080fd5b81019080803590602001909291908035906020019092919080359060200190929190803573ffffffffffffffffffffffffffffffffffffffff169060200190929190803573ffffffffffffffffffffffffffffffffffffffff1690602001909291908035906020019092919080359060200190929190803590602001909291908035906020019092919080351515906020019092919080351515906020019092919050505062003775565b005b3480156200074b57600080fd5b506200075662003962565b604051808273ffffffffffffffffffffffffffffffffffffffff1673ffffffffffffffffffffffffffffffffffffffff16815260200191505060405180910390f35b348015620007a557600080fd5b50620007d560048036036020811015620007be57600080fd5b81019080803590602001909291905050506200398c565b6040518085815260200184815260200183815260200182815260200194505050505060405180910390f35b3480156200080d57600080fd5b5062000818620039bc565b604051808273ffffffffffffffffffffffffffffffffffffffff1673ffffffffffffffffffffffffffffffffffffffff16815260200191505060405180910390f35b62000889600480360360208110156200087257600080fd5b8101908080359060200190929190505050620039e1565b005b620008ba60048036036020811015620008a357600080fd5b810190808035906020019092919050505062003f81565b005b348015620008c957600080fd5b50620008f960048036036020811015620008e257600080fd5b81019080803590602001909291905050506200458e565b604051808d81526020018c81526020018b81526020018a73ffffffffffffffffffffffffffffffffffffffff1673ffffffffffffffffffffffffffffffffffffffff1681526020018973ffffffffffffffffffffffffffffffffffffffff1673ffffffffffffffffffffffffffffffffffffffff16815260200188815260200187815260200186815260200185815260200184815260200183151515158152602001821515151581526020019c5050505050505050505050505060405180910390f35b620009c66200371e565b62000a39576040517f08c379a00000000000000000000000000000000000000000000000000000000081526004018080602001828103825260208152602001807f4f776e61626c653a2063616c6c6572206973206e6f7420746865206f776e657281525060200191505060405180910390fd5b60006002600083815260200190815260200160002060000160009054906101000a900473ffffffffffffffffffffffffffffffffffffffff16905060006127108273ffffffffffffffffffffffffffffffffffffffff1663b2d763436040518163ffffffff1660e01b815260040160206040518083038186803b15801562000ac057600080fd5b505afa15801562000ad5573d6000803e3d6000fd5b505050506040513d602081101562000aec57600080fd5b81019080805190602001909291905050506002600086815260200190815260200160002060090154028162000b1d57fe5b046127108373ffffffffffffffffffffffffffffffffffffffff16626770166040518163ffffffff1660e01b815260040160206040518083038186803b15801562000b6757600080fd5b505afa15801562000b7c573d6000803e3d6000fd5b505050506040513d602081101562000b9357600080fd5b81019080805190602001909291905050506002600087815260200190815260200160002060090154028162000bc457fe5b0401905060006127108373ffffffffffffffffffffffffffffffffffffffff1663b2d763436040518163ffffffff1660e01b815260040160206040518083038186803b15801562000c1457600080fd5b505afa15801562000c29573d6000803e3d6000fd5b505050506040513d602081101562000c4057600080fd5b810190808051906020019092919050505060026000878152602001908152602001600020600a0154028162000c7157fe5b046127108473ffffffffffffffffffffffffffffffffffffffff16626770166040518163ffffffff1660e01b815260040160206040518083038186803b15801562000cbb57600080fd5b505afa15801562000cd0573d6000803e3d6000fd5b505050506040513d602081101562000ce757600080fd5b810190808051906020019092919050505060026000888152602001908152602001600020600a0154028162000d1857fe5b04019050600081830190508373ffffffffffffffffffffffffffffffffffffffff1663117de2fd6002600088815260200190815260200160002060010160009054906101000a900473ffffffffffffffffffffffffffffffffffffffff16836040518363ffffffff1660e01b8152600401808373ffffffffffffffffffffffffffffffffffffffff1673ffffffffffffffffffffffffffffffffffffffff16815260200182815260200192505050600060405180830381600087803b15801562000de157600080fd5b505af115801562000df6573d6000803e3d6000fd5b50505050600083600260008881526020019081526020016000206009015403905060008360026000898152602001908152602001600020600a015403905060008090505b600260008981526020019081526020016000206004015481101562001048576000600260008a815260200190815260200160002060090154612710600260008c8152602001908152602001600020600201600085815260200190815260200160002060020154028162000ea957fe5b0490506000600260008b815260200190815260200160002060060154600260008c81526020019081526020016000206007015403612710600260008d8152602001908152602001600020600201600086815260200190815260200160002060010154028162000f1457fe5b04905060006127108387028162000f2757fe5b04905060006127108387028162000f3a57fe5b049050600081830190506000600260008f8152602001908152602001600020600201600088815260200190815260200160002060000160009054906101000a900473ffffffffffffffffffffffffffffffffffffffff1690508c73ffffffffffffffffffffffffffffffffffffffff1663117de2fd82846040518363ffffffff1660e01b8152600401808373ffffffffffffffffffffffffffffffffffffffff1673ffffffffffffffffffffffffffffffffffffffff16815260200182815260200192505050600060405180830381600087803b1580156200101b57600080fd5b505af115801562001030573d6000803e3d6000fd5b50505050505050505050808060010191505062000e3a565b503073ffffffffffffffffffffffffffffffffffffffff16631c14bc82886040518263ffffffff1660e01b815260040180828152602001915050600060405180830381600087803b1580156200109d57600080fd5b505af1158015620010b2573d6000803e3d6000fd5b5050505050505050505050565b60006002600083815260200190815260200160002060000160009054906101000a900473ffffffffffffffffffffffffffffffffffffffff1690506002600083815260200190815260200160002060000160009054906101000a900473ffffffffffffffffffffffffffffffffffffffff1673ffffffffffffffffffffffffffffffffffffffff16316003600084815260200190815260200160002060000181905550600260008381526020019081526020016000206008015460026000848152602001908152602001600020600701540161271060026000858152602001908152602001600020600801540281620011b457fe5b0460036000848152602001908152602001600020600201819055506002600083815260200190815260200160002060080154600260008481526020019081526020016000206007015401612710600260008581526020019081526020016000206007015402816200122157fe5b0460036000848152602001908152602001600020600101819055508073ffffffffffffffffffffffffffffffffffffffff16631eac76ba6040518163ffffffff1660e01b815260040160206040518083038186803b1580156200128357600080fd5b505afa15801562001298573d6000803e3d6000fd5b505050506040513d6020811015620012af57600080fd5b810190808051906020019092919050505060036000848152602001908152602001600020600301819055505050565b60026020528060005260406000206000915090508060000160009054906101000a900473ffffffffffffffffffffffffffffffffffffffff16908060010160009054906101000a900473ffffffffffffffffffffffffffffffffffffffff169080600401549080600501549080600601549080600701549080600801549080600901549080600a01549080600b018054600181600116156101000203166002900480601f016020809104026020016040519081016040528092919081815260200182805460018160011615610100020316600290048015620014045780601f10620013d85761010080835404028352916020019162001404565b820191906000526020600020905b815481529060010190602001808311620013e657829003601f168201915b50505050509080600c01549080600d01549080600e0160009054906101000a900460ff169080600e0160019054906101000a900473ffffffffffffffffffffffffffffffffffffffff1690508e565b60055481565b620014636200371e565b620014d6576040517f08c379a00000000000000000000000000000000000000000000000000000000081526004018080602001828103825260208152602001807f4f776e61626c653a2063616c6c6572206973206e6f7420746865206f776e657281525060200191505060405180910390fd5b60006002600083815260200190815260200160002060000160009054906101000a900473ffffffffffffffffffffffffffffffffffffffff16905060006127108273ffffffffffffffffffffffffffffffffffffffff1663b2d763436040518163ffffffff1660e01b815260040160206040518083038186803b1580156200155d57600080fd5b505afa15801562001572573d6000803e3d6000fd5b505050506040513d60208110156200158957600080fd5b810190808051906020019092919050505060026000868152602001908152602001600020600901540281620015ba57fe5b046127108373ffffffffffffffffffffffffffffffffffffffff16626770166040518163ffffffff1660e01b815260040160206040518083038186803b1580156200160457600080fd5b505afa15801562001619573d6000803e3d6000fd5b505050506040513d60208110156200163057600080fd5b8101908080519060200190929190505050600260008781526020019081526020016000206009015402816200166157fe5b0401905060006127108373ffffffffffffffffffffffffffffffffffffffff1663b2d763436040518163ffffffff1660e01b815260040160206040518083038186803b158015620016b157600080fd5b505afa158015620016c6573d6000803e3d6000fd5b505050506040513d6020811015620016dd57600080fd5b810190808051906020019092919050505060026000878152602001908152602001600020600a015402816200170e57fe5b046127108473ffffffffffffffffffffffffffffffffffffffff16626770166040518163ffffffff1660e01b815260040160206040518083038186803b1580156200175857600080fd5b505afa1580156200176d573d6000803e3d6000fd5b505050506040513d60208110156200178457600080fd5b810190808051906020019092919050505060026000888152602001908152602001600020600a01540281620017b557fe5b04019050600081830190508373ffffffffffffffffffffffffffffffffffffffff1663117de2fd6002600088815260200190815260200160002060010160009054906101000a900473ffffffffffffffffffffffffffffffffffffffff16836040518363ffffffff1660e01b8152600401808373ffffffffffffffffffffffffffffffffffffffff1673ffffffffffffffffffffffffffffffffffffffff16815260200182815260200192505050600060405180830381600087803b1580156200187e57600080fd5b505af115801562001893573d6000803e3d6000fd5b5050505060008260026000888152602001908152602001600020600a0154039050600084600260008981526020019081526020016000206009015403905060008090505b600260008981526020019081526020016000206005015481101562001ae8576000600260008a8152602001908152602001600020600a0154612710600260008c815260200190815260200160002060030160008581526020019081526020016000206002015402816200194657fe5b0490506000600260008b815260200190815260200160002060060154606403600260008c81526020019081526020016000206008015403612710600260008d81526020019081526020016000206003016000868152602001908152602001600020600101540281620019b457fe5b049050600061271083870281620019c757fe5b049050600061271083870281620019da57fe5b049050600081830190506000600260008f8152602001908152602001600020600301600088815260200190815260200160002060000160009054906101000a900473ffffffffffffffffffffffffffffffffffffffff1690508c73ffffffffffffffffffffffffffffffffffffffff1663117de2fd82846040518363ffffffff1660e01b8152600401808373ffffffffffffffffffffffffffffffffffffffff1673ffffffffffffffffffffffffffffffffffffffff16815260200182815260200192505050600060405180830381600087803b15801562001abb57600080fd5b505af115801562001ad0573d6000803e3d6000fd5b505050505050505050508080600101915050620018d7565b503073ffffffffffffffffffffffffffffffffffffffff16631c14bc82886040518263ffffffff1660e01b815260040180828152602001915050600060405180830381600087803b15801562001b3d57600080fd5b505af115801562001b52573d6000803e3d6000fd5b5050505050505050505050565b60065481565b62001b6f6200371e565b62001be2576040517f08c379a00000000000000000000000000000000000000000000000000000000081526004018080602001828103825260208152602001807f4f776e61626c653a2063616c6c6572206973206e6f7420746865206f776e657281525060200191505060405180910390fd5b600060026000838152602001908152602001600020600c01549050600381141562001c75576040517f08c379a000000000000000000000000000000000000000000000000000000000815260040180806020018281038252601c8152602001807f636f6e7472616374206f7261636c65206e6f74207265736f6c7665640000000081525060200191505060405180910390fd5b6000151560026000848152602001908152602001600020600e0160009054906101000a900460ff1615151462001d13576040517f08c379a00000000000000000000000000000000000000000000000000000000081526004018080602001828103825260138152602001807f6e6f20646f75626c65207265736f6c76696e670000000000000000000000000081525060200191505060405180910390fd5b600081141562001d2e5762001d288262001459565b62001d61565b600181141562001d495762001d4382620009bc565b62001d60565b600281141562001d5f5762001d5e826200305c565b5b5b5b3073ffffffffffffffffffffffffffffffffffffffff16631c14bc82836040518263ffffffff1660e01b815260040180828152602001915050600060405180830381600087803b15801562001db557600080fd5b505af115801562001dca573d6000803e3d6000fd5b50505050600160026000848152602001908152602001600020600e0160006101000a81548160ff0219169083151502179055505050565b62001e0b6200371e565b62001e7e576040517f08c379a00000000000000000000000000000000000000000000000000000000081526004018080602001828103825260208152602001807f4f776e61626c653a2063616c6c6572206973206e6f7420746865206f776e657281525060200191505060405180910390fd5b60006002600084815260200190815260200160002060000160009054906101000a900473ffffffffffffffffffffffffffffffffffffffff1690506002600084815260200190815260200160002060030160008381526020019081526020016000206002015460026000858152602001908152602001600020600a01540360026000858152602001908152602001600020600a018190555060026000848152602001908152602001600020600301600083815260200190815260200160002060010154600260008581526020019081526020016000206008015403600260008581526020019081526020016000206008018190555060006127108273ffffffffffffffffffffffffffffffffffffffff16626770166040518163ffffffff1660e01b815260040160206040518083038186803b15801562001fbe57600080fd5b505afa15801562001fd3573d6000803e3d6000fd5b505050506040513d602081101562001fea57600080fd5b81019080805190602001909291905050506002600087815260200190815260200160002060030160008681526020019081526020016000206002015402816200202f57fe5b0490508173ffffffffffffffffffffffffffffffffffffffff1663117de2fd6002600087815260200190815260200160002060010160009054906101000a900473ffffffffffffffffffffffffffffffffffffffff16836040518363ffffffff1660e01b8152600401808373ffffffffffffffffffffffffffffffffffffffff1673ffffffffffffffffffffffffffffffffffffffff16815260200182815260200192505050600060405180830381600087803b158015620020f057600080fd5b505af115801562002105573d6000803e3d6000fd5b5050505060008160026000878152602001908152602001600020600301600086815260200190815260200160002060020154039050600060026000878152602001908152602001600020600301600086815260200190815260200160002060000160009054906101000a900473ffffffffffffffffffffffffffffffffffffffff1690508373ffffffffffffffffffffffffffffffffffffffff1663117de2fd82846040518363ffffffff1660e01b8152600401808373ffffffffffffffffffffffffffffffffffffffff1673ffffffffffffffffffffffffffffffffffffffff16815260200182815260200192505050600060405180830381600087803b1580156200221157600080fd5b505af115801562002226573d6000803e3d6000fd5b505050506000600260008881526020019081526020016000206003016000878152602001908152602001600020600201819055506000600260008881526020019081526020016000206003016000878152602001908152602001600020600101819055503073ffffffffffffffffffffffffffffffffffffffff16631c14bc82876040518263ffffffff1660e01b815260040180828152602001915050600060405180830381600087803b158015620022de57600080fd5b505af1158015620022f3573d6000803e3d6000fd5b505050503073ffffffffffffffffffffffffffffffffffffffff1663929bd6aa87600260008a8152602001908152602001600020600301600089815260200190815260200160002060030154888832600080600080600060016040518c63ffffffff1660e01b8152600401808c81526020018b81526020018a81526020018973ffffffffffffffffffffffffffffffffffffffff1673ffffffffffffffffffffffffffffffffffffffff1681526020018873ffffffffffffffffffffffffffffffffffffffff1673ffffffffffffffffffffffffffffffffffffffff16815260200187815260200186815260200185815260200184815260200183151515158152602001821515151581526020019b505050505050505050505050600060405180830381600087803b1580156200242957600080fd5b505af11580156200243e573d6000803e3d6000fd5b50505050505050505050565b620024546200371e565b620024c7576040517f08c379a00000000000000000000000000000000000000000000000000000000081526004018080602001828103825260208152602001807f4f776e61626c653a2063616c6c6572206973206e6f7420746865206f776e657281525060200191505060405180910390fd5b6064841062002522576040517f08c379a0000000000000000000000000000000000000000000000000000000008152600401808060200182810382526058815260200180620051316058913960600191505060405180910390fd5b6000308686868686604051620025389062004648565b808773ffffffffffffffffffffffffffffffffffffffff1673ffffffffffffffffffffffffffffffffffffffff16815260200180602001868152602001858152602001848152602001838152602001828103825287818151815260200191508051906020019080838360005b83811015620025c1578082015181840152602081019050620025a4565b50505050905090810190601f168015620025ef5780820380516001836020036101000a031916815260200191505b50975050505050505050604051809103906000f08015801562002616573d6000803e3d6000fd5b5090508060026000600554815260200190815260200160002060000160006101000a81548173ffffffffffffffffffffffffffffffffffffffff021916908373ffffffffffffffffffffffffffffffffffffffff1602179055503360026000600554815260200190815260200160002060010160006101000a81548173ffffffffffffffffffffffffffffffffffffffff021916908373ffffffffffffffffffffffffffffffffffffffff16021790555084600260006005548152602001908152602001600020600601819055508460026000600554815260200190815260200160002060070181905550846064036002600060055481526020019081526020016000206008018190555085600260006005548152602001908152602001600020600b0190805190602001906200274f92919062004656565b506003600260006005548152602001908152602001600020600c0181905550600554600260006005548152602001908152602001600020600d01819055506000600260006005548152602001908152602001600020600e0160006101000a81548160ff02191690831515021790555080600260006005548152602001908152602001600020600e0160016101000a81548173ffffffffffffffffffffffffffffffffffffffff021916908373ffffffffffffffffffffffffffffffffffffffff1602179055503073ffffffffffffffffffffffffffffffffffffffff16631c14bc826005546040518263ffffffff1660e01b815260040180828152602001915050600060405180830381600087803b1580156200286b57600080fd5b505af115801562002880573d6000803e3d6000fd5b50505050600560008154809291906001019190505550505050505050565b620028a86200371e565b6200291b576040517f08c379a00000000000000000000000000000000000000000000000000000000081526004018080602001828103825260208152602001807f4f776e61626c653a2063616c6c6572206973206e6f7420746865206f776e657281525060200191505060405180910390fd5b600080905060008090506000809050600080905060008514156200294357600192506200297d565b60018514156200295757600193506200297c565b60028514156200296b57600191506200297b565b60038514156200297a57600190505b5b5b5b8280620029875750835b80620029905750815b80620029995750805b620029f0576040517f08c379a0000000000000000000000000000000000000000000000000000000008152600401808060200182810382526039815260200180620051896039913960400191505060405180910390fd5b8460026000888152602001908152602001600020600c0181905550505050505050565b62002a1d6200371e565b62002a90576040517f08c379a00000000000000000000000000000000000000000000000000000000081526004018080602001828103825260208152602001807f4f776e61626c653a2063616c6c6572206973206e6f7420746865206f776e657281525060200191505060405180910390fd5b60006002600084815260200190815260200160002060000160009054906101000a900473ffffffffffffffffffffffffffffffffffffffff16905060026000848152602001908152602001600020600201600083815260200190815260200160002060020154600260008581526020019081526020016000206009015403600260008581526020019081526020016000206009018190555060026000848152602001908152602001600020600201600083815260200190815260200160002060010154600260008581526020019081526020016000206007015403600260008581526020019081526020016000206007018190555060006127108273ffffffffffffffffffffffffffffffffffffffff16626770166040518163ffffffff1660e01b815260040160206040518083038186803b15801562002bd057600080fd5b505afa15801562002be5573d6000803e3d6000fd5b505050506040513d602081101562002bfc57600080fd5b810190808051906020019092919050505060026000878152602001908152602001600020600201600086815260200190815260200160002060020154028162002c4157fe5b0490508173ffffffffffffffffffffffffffffffffffffffff1663117de2fd6002600087815260200190815260200160002060010160009054906101000a900473ffffffffffffffffffffffffffffffffffffffff16836040518363ffffffff1660e01b8152600401808373ffffffffffffffffffffffffffffffffffffffff1673ffffffffffffffffffffffffffffffffffffffff16815260200182815260200192505050600060405180830381600087803b15801562002d0257600080fd5b505af115801562002d17573d6000803e3d6000fd5b5050505060008160026000878152602001908152602001600020600201600086815260200190815260200160002060020154039050600060026000878152602001908152602001600020600201600086815260200190815260200160002060000160009054906101000a900473ffffffffffffffffffffffffffffffffffffffff1690508373ffffffffffffffffffffffffffffffffffffffff1663117de2fd82846040518363ffffffff1660e01b8152600401808373ffffffffffffffffffffffffffffffffffffffff1673ffffffffffffffffffffffffffffffffffffffff16815260200182815260200192505050600060405180830381600087803b15801562002e2357600080fd5b505af115801562002e38573d6000803e3d6000fd5b505050506000600260008881526020019081526020016000206002016000878152602001908152602001600020600201819055506000600260008881526020019081526020016000206002016000878152602001908152602001600020600101819055503073ffffffffffffffffffffffffffffffffffffffff16631c14bc82876040518263ffffffff1660e01b815260040180828152602001915050600060405180830381600087803b15801562002ef057600080fd5b505af115801562002f05573d6000803e3d6000fd5b505050503073ffffffffffffffffffffffffffffffffffffffff1663929bd6aa87600260008a8152602001908152602001600020600201600089815260200190815260200160002060030154888832600080600080600160006040518c63ffffffff1660e01b8152600401808c81526020018b81526020018a81526020018973ffffffffffffffffffffffffffffffffffffffff1673ffffffffffffffffffffffffffffffffffffffff1681526020018873ffffffffffffffffffffffffffffffffffffffff1673ffffffffffffffffffffffffffffffffffffffff16815260200187815260200186815260200185815260200184815260200183151515158152602001821515151581526020019b505050505050505050505050600060405180830381600087803b1580156200303b57600080fd5b505af115801562003050573d6000803e3d6000fd5b50505050505050505050565b620030666200371e565b620030d9576040517f08c379a00000000000000000000000000000000000000000000000000000000081526004018080602001828103825260208152602001807f4f776e61626c653a2063616c6c6572206973206e6f7420746865206f776e657281525060200191505060405180910390fd5b60006002600083815260200190815260200160002060000160009054906101000a900473ffffffffffffffffffffffffffffffffffffffff16905060006127108273ffffffffffffffffffffffffffffffffffffffff16626770166040518163ffffffff1660e01b815260040160206040518083038186803b1580156200315f57600080fd5b505afa15801562003174573d6000803e3d6000fd5b505050506040513d60208110156200318b57600080fd5b810190808051906020019092919050505060026000868152602001908152602001600020600901540281620031bc57fe5b04905060006127108373ffffffffffffffffffffffffffffffffffffffff16626770166040518163ffffffff1660e01b815260040160206040518083038186803b1580156200320a57600080fd5b505afa1580156200321f573d6000803e3d6000fd5b505050506040513d60208110156200323657600080fd5b810190808051906020019092919050505060026000878152602001908152602001600020600a015402816200326757fe5b049050600081830190508373ffffffffffffffffffffffffffffffffffffffff1663117de2fd6002600088815260200190815260200160002060010160009054906101000a900473ffffffffffffffffffffffffffffffffffffffff16836040518363ffffffff1660e01b8152600401808373ffffffffffffffffffffffffffffffffffffffff1673ffffffffffffffffffffffffffffffffffffffff16815260200182815260200192505050600060405180830381600087803b1580156200332f57600080fd5b505af115801562003344573d6000803e3d6000fd5b50505050600083600260008881526020019081526020016000206009015403905060008360026000898152602001908152602001600020600a015403905060008090505b600260008981526020019081526020016000206004015481101562003514576000600260008a815260200190815260200160002060090154612710600260008c81526020019081526020016000206002016000858152602001908152602001600020600201540281620033f757fe5b0490506000612710828602816200340a57fe5b04905060008190506000600260008d8152602001908152602001600020600201600086815260200190815260200160002060000160009054906101000a900473ffffffffffffffffffffffffffffffffffffffff1690508a73ffffffffffffffffffffffffffffffffffffffff1663117de2fd82846040518363ffffffff1660e01b8152600401808373ffffffffffffffffffffffffffffffffffffffff1673ffffffffffffffffffffffffffffffffffffffff16815260200182815260200192505050600060405180830381600087803b158015620034e957600080fd5b505af1158015620034fe573d6000803e3d6000fd5b5050505050505050808060010191505062003388565b5060008090505b6002600089815260200190815260200160002060050154811015620036a7576000600260008a8152602001908152602001600020600a0154612710600260008c815260200190815260200160002060030160008581526020019081526020016000206002015402816200358a57fe5b0490506000612710828502816200359d57fe5b04905060008190506000600260008d8152602001908152602001600020600301600086815260200190815260200160002060000160009054906101000a900473ffffffffffffffffffffffffffffffffffffffff1690508a73ffffffffffffffffffffffffffffffffffffffff1663117de2fd82846040518363ffffffff1660e01b8152600401808373ffffffffffffffffffffffffffffffffffffffff1673ffffffffffffffffffffffffffffffffffffffff16815260200182815260200192505050600060405180830381600087803b1580156200367c57600080fd5b505af115801562003691573d6000803e3d6000fd5b505050505050505080806001019150506200351b565b503073ffffffffffffffffffffffffffffffffffffffff16631c14bc82886040518263ffffffff1660e01b815260040180828152602001915050600060405180830381600087803b158015620036fc57600080fd5b505af115801562003711573d6000803e3d6000fd5b5050505050505050505050565b60008060009054906101000a900473ffffffffffffffffffffffffffffffffffffffff1673ffffffffffffffffffffffffffffffffffffffff163373ffffffffffffffffffffffffffffffffffffffff1614905090565b8a600460008c815260200190815260200160002060000181905550600654600460008c81526020019081526020016000206001018190555088600460008c81526020019081526020016000206002018190555087600460008c815260200190815260200160002060030160006101000a81548173ffffffffffffffffffffffffffffffffffffffff021916908373ffffffffffffffffffffffffffffffffffffffff16021790555086600460008c815260200190815260200160002060040160006101000a81548173ffffffffffffffffffffffffffffffffffffffff021916908373ffffffffffffffffffffffffffffffffffffffff16021790555085600460008c81526020019081526020016000206005018190555084600460008c81526020019081526020016000206006018190555083600460008c81526020019081526020016000206007018190555082600460008c81526020019081526020016000206008018190555042600460008c81526020019081526020016000206009018190555081600460008c8152602001908152602001600020600a0160006101000a81548160ff02191690831515021790555080600460008c8152602001908152602001600020600a0160016101000a81548160ff0219169083151502179055505050505050505050505050565b6000600160009054906101000a900473ffffffffffffffffffffffffffffffffffffffff16905090565b60036020528060005260406000206000915090508060000154908060010154908060020154908060030154905084565b6000809054906101000a900473ffffffffffffffffffffffffffffffffffffffff1681565b600360026000838152602001908152602001600020600c01541462003a6e576040517f08c379a000000000000000000000000000000000000000000000000000000000815260040180806020018281038252601c8152602001807f746869732062657420697320616c7265616479207265736f6c7665640000000081525060200191505060405180910390fd5b60006002600083815260200190815260200160002060000160009054906101000a900473ffffffffffffffffffffffffffffffffffffffff1690508073ffffffffffffffffffffffffffffffffffffffff166108fc479081150290604051600060405180830381858888f1935050505015801562003af0573d6000803e3d6000fd5b50600061271060026000858152602001908152602001600020600801546002600086815260200190815260200160002060070154018373ffffffffffffffffffffffffffffffffffffffff16631eac76ba6040518163ffffffff1660e01b815260040160206040518083038186803b15801562003b6c57600080fd5b505afa15801562003b81573d6000803e3d6000fd5b505050506040513d602081101562003b9857600080fd5b8101908080519060200190929190505050612710600260008881526020019081526020016000206007015402028162003bcd57fe5b048162003bd657fe5b049050600081348162003be557fe5b049050336002600086815260200190815260200160002060020160006002600088815260200190815260200160002060040154815260200190815260200160002060000160006101000a81548173ffffffffffffffffffffffffffffffffffffffff021916908373ffffffffffffffffffffffffffffffffffffffff16021790555080600260008681526020019081526020016000206007015401600260008681526020019081526020016000206007018190555080600260008681526020019081526020016000206002016000600260008881526020019081526020016000206004015481526020019081526020016000206001018190555034600260008681526020019081526020016000206002016000600260008881526020019081526020016000206004015481526020019081526020016000206002018190555034600260008681526020019081526020016000206009015401600260008681526020019081526020016000206009018190555060065460026000868152602001908152602001600020600201600060026000888152602001908152602001600020600401548152602001908152602001600020600301819055503073ffffffffffffffffffffffffffffffffffffffff16631c14bc82856040518263ffffffff1660e01b815260040180828152602001915050600060405180830381600087803b15801562003df257600080fd5b505af115801562003e07573d6000803e3d6000fd5b505050503073ffffffffffffffffffffffffffffffffffffffff1663929bd6aa85600654600260008981526020019081526020016000206004015487328734600080600160006040518c63ffffffff1660e01b8152600401808c81526020018b81526020018a81526020018973ffffffffffffffffffffffffffffffffffffffff1673ffffffffffffffffffffffffffffffffffffffff1681526020018873ffffffffffffffffffffffffffffffffffffffff1673ffffffffffffffffffffffffffffffffffffffff16815260200187815260200186815260200185815260200184815260200183151515158152602001821515151581526020019b505050505050505050505050600060405180830381600087803b15801562003f2a57600080fd5b505af115801562003f3f573d6000803e3d6000fd5b50505050600260008581526020019081526020016000206004016000815480929190600101919050555060066000815480929190600101919050555050505050565b600360026000838152602001908152602001600020600c0154146200400e576040517f08c379a000000000000000000000000000000000000000000000000000000000815260040180806020018281038252601c8152602001807f746869732062657420697320616c7265616479207265736f6c7665640000000081525060200191505060405180910390fd5b60006002600083815260200190815260200160002060000160009054906101000a900473ffffffffffffffffffffffffffffffffffffffff1690508073ffffffffffffffffffffffffffffffffffffffff166108fc479081150290604051600060405180830381858888f1935050505015801562004090573d6000803e3d6000fd5b50600061271060026000858152602001908152602001600020600801546002600086815260200190815260200160002060070154018373ffffffffffffffffffffffffffffffffffffffff16631eac76ba6040518163ffffffff1660e01b815260040160206040518083038186803b1580156200410c57600080fd5b505afa15801562004121573d6000803e3d6000fd5b505050506040513d60208110156200413857600080fd5b810190808051906020019092919050505061271060026000888152602001908152602001600020600801540202816200416d57fe5b04816200417657fe5b04905060008134816200418557fe5b049050336002600086815260200190815260200160002060030160006002600088815260200190815260200160002060050154815260200190815260200160002060000160006101000a81548173ffffffffffffffffffffffffffffffffffffffff021916908373ffffffffffffffffffffffffffffffffffffffff1602179055508060026000868152602001908152602001600020600801540160026000868152602001908152602001600020600801819055508060026000868152602001908152602001600020600301600060026000888152602001908152602001600020600501548152602001908152602001600020600101819055503460026000868152602001908152602001600020600301600060026000888152602001908152602001600020600501548152602001908152602001600020600201819055503460026000868152602001908152602001600020600a01540160026000868152602001908152602001600020600a018190555060065460026000868152602001908152602001600020600301600060026000888152602001908152602001600020600501548152602001908152602001600020600301819055503073ffffffffffffffffffffffffffffffffffffffff16631c14bc82856040518263ffffffff1660e01b815260040180828152602001915050600060405180830381600087803b1580156200439257600080fd5b505af1158015620043a7573d6000803e3d6000fd5b505050503073ffffffffffffffffffffffffffffffffffffffff16631c14bc82856040518263ffffffff1660e01b815260040180828152602001915050600060405180830381600087803b158015620043ff57600080fd5b505af115801562004414573d6000803e3d6000fd5b505050503073ffffffffffffffffffffffffffffffffffffffff1663929bd6aa85600654600260008981526020019081526020016000206005015487326000808934600060016040518c63ffffffff1660e01b8152600401808c81526020018b81526020018a81526020018973ffffffffffffffffffffffffffffffffffffffff1673ffffffffffffffffffffffffffffffffffffffff1681526020018873ffffffffffffffffffffffffffffffffffffffff1673ffffffffffffffffffffffffffffffffffffffff16815260200187815260200186815260200185815260200184815260200183151515158152602001821515151581526020019b505050505050505050505050600060405180830381600087803b1580156200453757600080fd5b505af11580156200454c573d6000803e3d6000fd5b50505050600260008581526020019081526020016000206005016000815480929190600101919050555060066000815480929190600101919050555050505050565b60046020528060005260406000206000915090508060000154908060010154908060020154908060030160009054906101000a900473ffffffffffffffffffffffffffffffffffffffff16908060040160009054906101000a900473ffffffffffffffffffffffffffffffffffffffff169080600501549080600601549080600701549080600801549080600901549080600a0160009054906101000a900460ff169080600a0160019054906101000a900460ff1690508c565b610a2b806200470683390190565b828054600181600116156101000203166002900490600052602060002090601f016020900481019282601f106200469957805160ff1916838001178555620046ca565b82800160010185558215620046ca579182015b82811115620046c9578251825591602001919060010190620046ac565b5b509050620046d99190620046dd565b5090565b6200470291905b80821115620046fe576000816000905550600101620046e4565b5090565b9056fe6080604052604051610a2b380380610a2b833981810160405260c081101561002657600080fd5b81019080805190602001909291908051604051939291908464010000000082111561005057600080fd5b8382019150602082018581111561006657600080fd5b825186600182028301116401000000008211171561008357600080fd5b8083526020830192505050908051906020019080838360005b838110156100b757808201518184015260208101905061009c565b50505050905090810190601f1680156100e45780820380516001836020036101000a031916815260200191505b5060405260200180519060200190929190805190602001909291908051906020019092919080519060200190929190505050336000806101000a81548173ffffffffffffffffffffffffffffffffffffffff021916908373ffffffffffffffffffffffffffffffffffffffff160217905550846001908051906020019061016c929190610216565b508360038190555082600581905550816006819055508060048190555030600760006101000a81548173ffffffffffffffffffffffffffffffffffffffff021916908373ffffffffffffffffffffffffffffffffffffffff16021790555085600960006101000a81548173ffffffffffffffffffffffffffffffffffffffff021916908373ffffffffffffffffffffffffffffffffffffffff1602179055505050505050506102bb565b828054600181600116156101000203166002900490600052602060002090601f016020900481019282601f1061025757805160ff1916838001178555610285565b82800160010185558215610285579182015b82811115610284578251825591602001919060010190610269565b5b5090506102929190610296565b5090565b6102b891905b808211156102b457600081600090555060010161029c565b5090565b90565b610761806102ca6000396000f3fe60806040526004361061009f5760003560e01c80638f32d59b116100645780638f32d59b146101a9578063b2bdfa7b146101d8578063b2d763431461022f578063ba002c611461025a578063e7322fd4146102ea578063f851a44014610341576100a0565b8062677016146100a2578063117de2fd146100cd578063186ae5e5146101285780631eac76ba146101535780636bcdabd01461017e576100a0565b5b005b3480156100ae57600080fd5b506100b7610398565b6040518082815260200191505060405180910390f35b3480156100d957600080fd5b50610126600480360360408110156100f057600080fd5b81019080803573ffffffffffffffffffffffffffffffffffffffff1690602001909291908035906020019092919050505061039e565b005b34801561013457600080fd5b5061013d610589565b6040518082815260200191505060405180910390f35b34801561015f57600080fd5b5061016861058f565b6040518082815260200191505060405180910390f35b34801561018a57600080fd5b50610193610595565b6040518082815260200191505060405180910390f35b3480156101b557600080fd5b506101be61059b565b604051808215151515815260200191505060405180910390f35b3480156101e457600080fd5b506101ed6105f2565b604051808273ffffffffffffffffffffffffffffffffffffffff1673ffffffffffffffffffffffffffffffffffffffff16815260200191505060405180910390f35b34801561023b57600080fd5b50610244610617565b6040518082815260200191505060405180910390f35b34801561026657600080fd5b5061026f61061d565b6040518080602001828103825283818151815260200191508051906020019080838360005b838110156102af578082015181840152602081019050610294565b50505050905090810190601f1680156102dc5780820380516001836020036101000a031916815260200191505b509250505060405180910390f35b3480156102f657600080fd5b506102ff6106bb565b604051808273ffffffffffffffffffffffffffffffffffffffff1673ffffffffffffffffffffffffffffffffffffffff16815260200191505060405180910390f35b34801561034d57600080fd5b506103566106e1565b604051808273ffffffffffffffffffffffffffffffffffffffff1673ffffffffffffffffffffffffffffffffffffffff16815260200191505060405180910390f35b60055481565b6103a661059b565b610418576040517f08c379a00000000000000000000000000000000000000000000000000000000081526004018080602001828103825260208152602001807f4f776e61626c653a2063616c6c6572206973206e6f7420746865206f776e657281525060200191505060405180910390fd5b3273ffffffffffffffffffffffffffffffffffffffff16600960009054906101000a900473ffffffffffffffffffffffffffffffffffffffff1673ffffffffffffffffffffffffffffffffffffffff1663acfe39886040518163ffffffff1660e01b815260040160206040518083038186803b15801561049757600080fd5b505afa1580156104ab573d6000803e3d6000fd5b505050506040513d60208110156104c157600080fd5b810190808051906020019092919050505073ffffffffffffffffffffffffffffffffffffffff161461053e576040517f08c379a00000000000000000000000000000000000000000000000000000000081526004018080602001828103825260248152602001806107086024913960400191505060405180910390fd5b8173ffffffffffffffffffffffffffffffffffffffff166108fc829081150290604051600060405180830381858888f19350505050158015610584573d6000803e3d6000fd5b505050565b60025481565b60045481565b60035481565b60008060009054906101000a900473ffffffffffffffffffffffffffffffffffffffff1673ffffffffffffffffffffffffffffffffffffffff163373ffffffffffffffffffffffffffffffffffffffff1614905090565b6000809054906101000a900473ffffffffffffffffffffffffffffffffffffffff1681565b60065481565b60018054600181600116156101000203166002900480601f0160208091040260200160405190810160405280929190818152602001828054600181600116156101000203166002900480156106b35780601f10610688576101008083540402835291602001916106b3565b820191906000526020600020905b81548152906001019060200180831161069657829003601f168201915b505050505081565b600760009054906101000a900473ffffffffffffffffffffffffffffffffffffffff1681565b600860009054906101000a900473ffffffffffffffffffffffffffffffffffffffff168156fe6f6e6c79207468652061646d696e2063616e207265736f6c766520636f6e747261637473a2646970667358221220f4be99db9c5974caa42e92595f31ece5bc7ae20e2e40eeca578a5c3f8590b70564736f6c6343000601003373657420796573206f6464732062656c6f772031303020746f2073746172743b207265636f6d6d656e642035302f353020756e6c657373207468657265206973206a757374696669636174696f6e20666f72206f746865726f7574636f6d65732073686f756c64206265203020286e6f292c20312028796573292c2032202870757368292c206f72203320286e6f6e6529a264697066735822122047543b9d42a4f2dd4da9c929446b98342428b7d6679bb210bc263acf9085cdf564736f6c63430006010033",
  "source": "pragma solidity ^0.6.0;\r\nimport \"./Ownable.sol\";\r\nimport \"./Bet.sol\";\r\n\r\ncontract CreateBet is Ownable {\r\n    \r\n    address payable createbetmaster;\r\n    constructor() public payable {\r\n        createbetmaster = msg.sender;\r\n    }\r\n\r\n    struct s_yesnobet {\r\n        yesnobet _bet;\r\n        address payable _admin;\r\n        mapping(uint => s_yesplayer) yesplayers;\r\n        mapping(uint => s_noplayer) noplayers;\r\n        uint256 _yesplayers;\r\n        uint256 _noplayers;\r\n        uint256 _genesisvotes;\r\n        uint256 _yesvotes;\r\n        uint256 _novotes;\r\n        uint256 _yeswagers;\r\n        uint256 _nowagers;\r\n        string _proposition;\r\n        int _outcome;\r\n        uint _id;\r\n        bool _resolver;\r\n        address payable _betaddress;\r\n    }\r\n\r\n    struct s_yesplayer {\r\n        address payable _yesplayer;\r\n        uint256 _yesvotes;\r\n        uint256 _yesbalance;\r\n        uint256 _uniqueplayer;\r\n    }\r\n    struct s_noplayer {\r\n        address payable _noplayer;\r\n        uint256 _novotes;\r\n        uint256 _nobalance;\r\n        uint256 _uniqueplayer;\r\n    }\r\n\r\n    struct s_betstats{\r\n        uint256 _betbalance;\r\n        uint256 _yesodds;\r\n        uint256 _noodds;\r\n        uint256 _genesiscost;\r\n    }\r\n\r\n    struct s_tests {\r\n        uint256 _betindex;\r\n        uint256 _bettorindex;\r\n        uint256 _specificindex;\r\n        address _contract;\r\n        address _player;\r\n        uint256 _playeryesvotes;\r\n        uint256 _playeryesbalance;\r\n        uint256 _playernovotes;\r\n        uint256 _playernobalance;\r\n        uint _time;\r\n        bool _isyes;\r\n        bool _isno;\r\n    }\r\n\r\n    mapping(uint => s_yesnobet) public bets;\r\n    mapping(uint => s_betstats) public stats;\r\n    mapping(uint => s_tests) public tests;\r\n\r\n    uint public index = 0;\r\n    uint public bettorindex = 0;\r\n    \r\n    function createyesnobet(string memory _createproposition, uint256 _genesisodds, uint256 _gasfee, uint256 _adminfee, uint256 _genesiscost) public payable onlyOwner {\r\n        require(_genesisodds < 100, \"set yes odds below 100 to start; recommend 50/50 unless there is justification for other\");\r\n        yesnobet bet = new yesnobet(this, _createproposition , _genesisodds, _gasfee, _adminfee, _genesiscost);\r\n        bets[index]._bet = bet;\r\n        bets[index]._admin = msg.sender;\r\n        bets[index]._genesisvotes = _genesisodds;\r\n        bets[index]._yesvotes = _genesisodds;\r\n        bets[index]._novotes = 100 - _genesisodds;\r\n        bets[index]._proposition = _createproposition;\r\n        bets[index]._outcome = 3; // 3 = none\r\n        bets[index]._id = index;\r\n        bets[index]._resolver = false;\r\n        bets[index]._betaddress = address(bet);\r\n        this.updatestats(index);\r\n        index ++;\r\n    }\r\n\r\n    function updatestats(uint _index) public {\r\n        yesnobet bet = bets[_index]._bet;\r\n        stats[_index]._betbalance = address(bets[_index]._bet).balance;\r\n        stats[_index]._noodds = (bets[_index]._novotes * 10000) / (bets[_index]._yesvotes + bets[_index]._novotes);\r\n        stats[_index]._yesodds = (bets[_index]._yesvotes * 10000) / (bets[_index]._yesvotes + bets[_index]._novotes);\r\n        stats[_index]._genesiscost = bet.genesiscost();\r\n    }\r\n\r\n    function test(\r\n        uint _betindex,\r\n        uint _bettorindex,\r\n        uint _specificindex,\r\n        address _contract,\r\n        address _player,\r\n        uint256 _yesvotes,\r\n        uint256 _yesbalance,\r\n        uint256 _novotes,\r\n        uint256 _nobalance,\r\n        bool _yes,\r\n        bool _no\r\n        ) public\r\n        {\r\n        tests[_bettorindex]._betindex = _betindex;\r\n        tests[_bettorindex]._bettorindex = bettorindex;\r\n        tests[_bettorindex]._specificindex = _specificindex;\r\n        tests[_bettorindex]._contract = _contract;\r\n        tests[_bettorindex]._player = _player;\r\n        tests[_bettorindex]._playeryesvotes = _yesvotes;\r\n        tests[_bettorindex]._playeryesbalance = _yesbalance;\r\n        tests[_bettorindex]._playernovotes = _novotes;\r\n        tests[_bettorindex]._playernobalance = _nobalance;\r\n        tests[_bettorindex]._time = block.timestamp;\r\n        tests[_bettorindex]._isyes = _yes;\r\n        tests[_bettorindex]._isno = _no;\r\n        \r\n    }\r\n    \r\n\r\n    function betyes(uint _index) public payable {\r\n        require( bets[_index]._outcome == 3, \"this bet is already resolved\");\r\n        yesnobet bet = bets[_index]._bet;\r\n        payable(address(bet)).transfer(address(this).balance);\r\n        uint price = (bets[_index]._yesvotes * 10000 * bet.genesiscost()) / (bets[_index]._yesvotes + bets[_index]._novotes) / 10000;\r\n        uint votes = msg.value / price;\r\n        bets[_index].yesplayers[bets[_index]._yesplayers]._yesplayer = msg.sender;\r\n        bets[_index]._yesvotes = bets[_index]._yesvotes + votes;\r\n        bets[_index].yesplayers[bets[_index]._yesplayers]._yesvotes = votes;\r\n        bets[_index].yesplayers[bets[_index]._yesplayers]._yesbalance = msg.value;\r\n        bets[_index]._yeswagers = bets[_index]._yeswagers + msg.value;\r\n        bets[_index].yesplayers[bets[_index]._yesplayers]._uniqueplayer = bettorindex;\r\n        this.updatestats(_index);\r\n        this.test(_index, bettorindex, bets[_index]._yesplayers, address(bet), tx.origin, votes, msg.value, 0, 0, true, false);\r\n        bets[_index]._yesplayers ++;\r\n        bettorindex ++;\r\n    }\r\n\r\n    function betno(uint _index) public payable {\r\n        require( bets[_index]._outcome == 3, \"this bet is already resolved\");\r\n        yesnobet bet = bets[_index]._bet;\r\n        payable(address(bet)).transfer(address(this).balance);\r\n        uint price = (bets[_index]._novotes * 10000 * bet.genesiscost()) / (bets[_index]._yesvotes + bets[_index]._novotes) / 10000;\r\n        uint votes = msg.value / price;\r\n        bets[_index].noplayers[bets[_index]._noplayers]._noplayer = msg.sender;\r\n        bets[_index]._novotes = bets[_index]._novotes + votes;\r\n        bets[_index].noplayers[bets[_index]._noplayers]._novotes = votes;\r\n        bets[_index].noplayers[bets[_index]._noplayers]._nobalance = msg.value;\r\n        bets[_index]._nowagers = bets[_index]._nowagers + msg.value;\r\n        bets[_index].noplayers[bets[_index]._noplayers]._uniqueplayer = bettorindex;\r\n        this.updatestats(_index);this.updatestats(_index);\r\n        this.test(_index, bettorindex,bets[_index]._noplayers, address(bet), tx.origin, 0, 0,votes, msg.value, false, true);\r\n        bets[_index]._noplayers ++;\r\n        bettorindex ++;\r\n    }\r\n\r\n    function setoracle (uint _index, int _outcome) public onlyOwner {\r\n        bool yes = false; \r\n        bool no = false; \r\n        bool push = false; \r\n        bool none = false;\r\n\r\n        if (_outcome == 0) {\r\n            no = true;\r\n        } else if (_outcome == 1) {\r\n            yes = true;\r\n        } else if (_outcome == 2) {\r\n            push = true;\r\n        } else if (_outcome == 3) {\r\n            none = true;\r\n        }\r\n        require( no || yes || push || none, \"outcomes should be 0 (no), 1 (yes), 2 (push), or 3 (none)\");\r\n        bets[_index]._outcome = _outcome;\r\n    }\r\n\r\n    function resolve (uint _index) public onlyOwner {\r\n        int _outcome = bets[_index]._outcome;\r\n        require(_outcome != 3, \"contract oracle not resolved\");\r\n        require(bets[_index]._resolver == false, \"no double resolving\");\r\n        \r\n        if (_outcome == 0) {\r\n            payno(_index);//no\r\n        } else if (_outcome == 1) {\r\n            payyes(_index); //yes\r\n        } else if (_outcome == 2) {\r\n            paypush(_index);//push;\r\n        }\r\n        this.updatestats(_index);\r\n        bets[_index]._resolver = true;\r\n\r\n    }\r\n    function revertno(uint _index, uint _player) public onlyOwner {\r\n        yesnobet bet = bets[_index]._bet;\r\n        bets[_index]._nowagers = bets[_index]._nowagers - bets[_index].noplayers[_player]._nobalance;\r\n        bets[_index]._novotes = bets[_index]._novotes - bets[_index].noplayers[_player]._novotes;\r\n        uint256 fees =  bets[_index].noplayers[_player]._nobalance * bet.gasfee() / 10000;\r\n        bet.payout(bets[_index]._admin, fees);\r\n        uint256 amount = bets[_index].noplayers[_player]._nobalance - fees;\r\n        address payable receiver = bets[_index].noplayers[_player]._noplayer;\r\n        bet.payout(receiver, amount);\r\n        bets[_index].noplayers[_player]._nobalance = 0;\r\n        bets[_index].noplayers[_player]._novotes = 0;\r\n        this.updatestats(_index);\r\n        this.test(_index, \r\n        bets[_index].noplayers[_player]._uniqueplayer, \r\n        _player, \r\n        address(bet), \r\n        tx.origin, 0, 0, 0, 0, false, true);\r\n    }\r\n\r\n    function revertyes(uint _index, uint _player) public onlyOwner {\r\n        yesnobet bet = bets[_index]._bet;\r\n        bets[_index]._yeswagers = bets[_index]._yeswagers - bets[_index].yesplayers[_player]._yesbalance;\r\n        bets[_index]._yesvotes = bets[_index]._yesvotes - bets[_index].yesplayers[_player]._yesvotes;\r\n        uint256 fees =  bets[_index].yesplayers[_player]._yesbalance * bet.gasfee() / 10000;\r\n        bet.payout(bets[_index]._admin, fees);\r\n        uint256 amount = bets[_index].yesplayers[_player]._yesbalance - fees;\r\n        address payable receiver = bets[_index].yesplayers[_player]._yesplayer;\r\n        bet.payout(receiver, amount);\r\n        bets[_index].yesplayers[_player]._yesbalance = 0;\r\n        bets[_index].yesplayers[_player]._yesvotes = 0;\r\n        this.updatestats(_index);\r\n        this.test(_index, \r\n        bets[_index].yesplayers[_player]._uniqueplayer, \r\n        _player, \r\n        address(bet), \r\n        tx.origin, 0, 0, 0, 0, true, false);\r\n    }\r\n\r\n    function payyes (uint _index) public onlyOwner {\r\n        yesnobet bet = bets[_index]._bet;\r\n        uint256 yesfees = bets[_index]._yeswagers * bet.gasfee() / 10000 + bets[_index]._yeswagers * bet.adminfee() / 10000;\r\n        uint256 nofees = bets[_index]._nowagers * bet.gasfee() / 10000 + bets[_index]._nowagers * bet.adminfee() / 10000;\r\n        uint256 fees = yesfees + nofees;\r\n        bet.payout(bets[_index]._admin, fees);\r\n        uint256 wagers = bets[_index]._yeswagers - yesfees;\r\n        uint256 upside = bets[_index]._nowagers - nofees;\r\n\r\n        for (uint256 i = 0; i < bets[_index]._yesplayers; i++ ) {\r\n            uint256 wagershare = bets[_index].yesplayers[i]._yesbalance * 10000 /  (bets[_index]._yeswagers);\r\n            uint256 upsideshare = bets[_index].yesplayers[i]._yesvotes * 10000 /  (bets[_index]._yesvotes - bets[_index]._genesisvotes);\r\n            uint256 wageramount = wagers * wagershare / 10000;\r\n            uint256 upsideamount = upside * upsideshare / 10000;\r\n            uint256 amount = wageramount + upsideamount;\r\n            address payable receiver = bets[_index].yesplayers[i]._yesplayer;\r\n            bet.payout(receiver, amount);\r\n        }\r\n        this.updatestats(_index);\r\n    }\r\n\r\n    function payno (uint _index) public onlyOwner {\r\n        yesnobet bet = bets[_index]._bet;\r\n        uint256 yesfees = bets[_index]._yeswagers * bet.gasfee() / 10000 + bets[_index]._yeswagers * bet.adminfee() / 10000;\r\n        uint256 nofees = bets[_index]._nowagers * bet.gasfee() / 10000 + bets[_index]._nowagers * bet.adminfee() / 10000;\r\n        uint256 fees = yesfees + nofees;\r\n        bet.payout(bets[_index]._admin, fees);\r\n        uint256 wagers = bets[_index]._nowagers - nofees;\r\n        uint256 upside = bets[_index]._yeswagers - yesfees;\r\n\r\n        for (uint256 i = 0; i < bets[_index]._noplayers; i++ ) {\r\n            uint256 wagershare = bets[_index].noplayers[i]._nobalance * 10000 /  (bets[_index]._nowagers);\r\n            uint256 upsideshare = bets[_index].noplayers[i]._novotes * 10000 /  (bets[_index]._novotes - (100 - bets[_index]._genesisvotes));\r\n            uint256 wageramount = wagers * wagershare / 10000;\r\n            uint256 upsideamount = upside * upsideshare / 10000;\r\n            uint256 amount = wageramount + upsideamount;\r\n            address payable receiver = bets[_index].noplayers[i]._noplayer;\r\n            bet.payout(receiver, amount);\r\n        }\r\n        this.updatestats(_index);\r\n    }\r\n\r\n    function paypush (uint _index) public onlyOwner {\r\n        yesnobet bet = bets[_index]._bet;\r\n        uint256 yesfees = bets[_index]._yeswagers * bet.gasfee() / 10000;\r\n        uint256 nofees = bets[_index]._nowagers * bet.gasfee() / 10000;\r\n        uint256 fees = yesfees + nofees;\r\n        bet.payout(bets[_index]._admin, fees);\r\n        uint256 yeswagers = bets[_index]._yeswagers - yesfees;\r\n        uint256 nowagers = bets[_index]._nowagers - nofees;\r\n\r\n        for (uint256 i = 0; i < bets[_index]._yesplayers; i++ ) {\r\n            uint256 wagershare = bets[_index].yesplayers[i]._yesbalance * 10000 /  (bets[_index]._yeswagers);\r\n            uint256 wageramount = yeswagers * wagershare / 10000;\r\n            uint256 amount = wageramount;\r\n            address payable receiver = bets[_index].yesplayers[i]._yesplayer;\r\n            bet.payout(receiver, amount);\r\n        }\r\n\r\n        for (uint256 i = 0; i < bets[_index]._noplayers; i++ ) {\r\n            uint256 wagershare = bets[_index].noplayers[i]._nobalance * 10000 /  (bets[_index]._nowagers);\r\n            uint256 wageramount = nowagers * wagershare / 10000;\r\n            uint256 amount = wageramount;\r\n            address payable receiver = bets[_index].noplayers[i]._noplayer;\r\n            bet.payout(receiver, amount);\r\n        }\r\n        this.updatestats(_index);\r\n    }\r\n\r\n    function validatemaster() public view returns(address){\r\n        return address(createbetmaster);\r\n    }\r\n}",
  "sourcePath": "C:\\Users\\mattg\\mothbet6\\src\\contracts\\CreateBet.sol",
  "compiler": {
    "name": "solc",
    "version": "0.6.1+commit.e6f7d5a4.Emscripten.clang"
  },
  "schemaVersion": "3.4.3",
  "updatedAt": "2022-01-16T17:38:55.612Z",
  "networkType": "ethereum",
  "devdoc": {
    "methods": {
      "isOwner()": {
        "details": "Returns true if the caller is the current owner."
      }
    }
  },
  "userdoc": {
    "methods": {}
  }
}