{
  "contractName": "yesnobet",
  "abi": [
    {
      "inputs": [
        {
          "internalType": "contract CreateBet",
          "name": "_parentInstance",
          "type": "address"
        },
        {
          "internalType": "string",
          "name": "_proposition",
          "type": "string"
        },
        {
          "internalType": "uint256",
          "name": "_genesisodds",
          "type": "uint256"
        },
        {
          "internalType": "uint256",
          "name": "_gasfee",
          "type": "uint256"
        },
        {
          "internalType": "uint256",
          "name": "_adminfee",
          "type": "uint256"
        },
        {
          "internalType": "uint256",
          "name": "_genesiscost",
          "type": "uint256"
        }
      ],
      "stateMutability": "payable",
      "type": "constructor"
    },
    {
      "stateMutability": "payable",
      "type": "fallback"
    },
    {
      "inputs": [],
      "name": "_owner",
      "outputs": [
        {
          "internalType": "address",
          "name": "",
          "type": "address"
        }
      ],
      "stateMutability": "view",
      "type": "function"
    },
    {
      "inputs": [],
      "name": "admin",
      "outputs": [
        {
          "internalType": "address",
          "name": "",
          "type": "address"
        }
      ],
      "stateMutability": "view",
      "type": "function"
    },
    {
      "inputs": [],
      "name": "adminfee",
      "outputs": [
        {
          "internalType": "uint256",
          "name": "",
          "type": "uint256"
        }
      ],
      "stateMutability": "view",
      "type": "function"
    },
    {
      "inputs": [],
      "name": "betaddress",
      "outputs": [
        {
          "internalType": "address",
          "name": "",
          "type": "address"
        }
      ],
      "stateMutability": "view",
      "type": "function"
    },
    {
      "inputs": [],
      "name": "gasfee",
      "outputs": [
        {
          "internalType": "uint256",
          "name": "",
          "type": "uint256"
        }
      ],
      "stateMutability": "view",
      "type": "function"
    },
    {
      "inputs": [],
      "name": "genesiscost",
      "outputs": [
        {
          "internalType": "uint256",
          "name": "",
          "type": "uint256"
        }
      ],
      "stateMutability": "view",
      "type": "function"
    },
    {
      "inputs": [],
      "name": "genesisodds",
      "outputs": [
        {
          "internalType": "uint256",
          "name": "",
          "type": "uint256"
        }
      ],
      "stateMutability": "view",
      "type": "function"
    },
    {
      "inputs": [],
      "name": "genesisweight",
      "outputs": [
        {
          "internalType": "uint256",
          "name": "",
          "type": "uint256"
        }
      ],
      "stateMutability": "view",
      "type": "function"
    },
    {
      "inputs": [],
      "name": "isOwner",
      "outputs": [
        {
          "internalType": "bool",
          "name": "",
          "type": "bool"
        }
      ],
      "stateMutability": "view",
      "type": "function"
    },
    {
      "inputs": [],
      "name": "proposition",
      "outputs": [
        {
          "internalType": "string",
          "name": "",
          "type": "string"
        }
      ],
      "stateMutability": "view",
      "type": "function"
    },
    {
      "inputs": [
        {
          "internalType": "address payable",
          "name": "_to",
          "type": "address"
        },
        {
          "internalType": "uint256",
          "name": "_amount",
          "type": "uint256"
        }
      ],
      "name": "payout",
      "outputs": [],
      "stateMutability": "nonpayable",
      "type": "function"
    }
  ],
  "bytecode": "0x6080604052604051610a2b380380610a2b833981810160405260c081101561002657600080fd5b81019080805190602001909291908051604051939291908464010000000082111561005057600080fd5b8382019150602082018581111561006657600080fd5b825186600182028301116401000000008211171561008357600080fd5b8083526020830192505050908051906020019080838360005b838110156100b757808201518184015260208101905061009c565b50505050905090810190601f1680156100e45780820380516001836020036101000a031916815260200191505b5060405260200180519060200190929190805190602001909291908051906020019092919080519060200190929190505050336000806101000a81548173ffffffffffffffffffffffffffffffffffffffff021916908373ffffffffffffffffffffffffffffffffffffffff160217905550846001908051906020019061016c929190610216565b508360038190555082600581905550816006819055508060048190555030600760006101000a81548173ffffffffffffffffffffffffffffffffffffffff021916908373ffffffffffffffffffffffffffffffffffffffff16021790555085600960006101000a81548173ffffffffffffffffffffffffffffffffffffffff021916908373ffffffffffffffffffffffffffffffffffffffff1602179055505050505050506102bb565b828054600181600116156101000203166002900490600052602060002090601f016020900481019282601f1061025757805160ff1916838001178555610285565b82800160010185558215610285579182015b82811115610284578251825591602001919060010190610269565b5b5090506102929190610296565b5090565b6102b891905b808211156102b457600081600090555060010161029c565b5090565b90565b610761806102ca6000396000f3fe60806040526004361061009f5760003560e01c80638f32d59b116100645780638f32d59b146101a9578063b2bdfa7b146101d8578063b2d763431461022f578063ba002c611461025a578063e7322fd4146102ea578063f851a44014610341576100a0565b8062677016146100a2578063117de2fd146100cd578063186ae5e5146101285780631eac76ba146101535780636bcdabd01461017e576100a0565b5b005b3480156100ae57600080fd5b506100b7610398565b6040518082815260200191505060405180910390f35b3480156100d957600080fd5b50610126600480360360408110156100f057600080fd5b81019080803573ffffffffffffffffffffffffffffffffffffffff1690602001909291908035906020019092919050505061039e565b005b34801561013457600080fd5b5061013d610589565b6040518082815260200191505060405180910390f35b34801561015f57600080fd5b5061016861058f565b6040518082815260200191505060405180910390f35b34801561018a57600080fd5b50610193610595565b6040518082815260200191505060405180910390f35b3480156101b557600080fd5b506101be61059b565b604051808215151515815260200191505060405180910390f35b3480156101e457600080fd5b506101ed6105f2565b604051808273ffffffffffffffffffffffffffffffffffffffff1673ffffffffffffffffffffffffffffffffffffffff16815260200191505060405180910390f35b34801561023b57600080fd5b50610244610617565b6040518082815260200191505060405180910390f35b34801561026657600080fd5b5061026f61061d565b6040518080602001828103825283818151815260200191508051906020019080838360005b838110156102af578082015181840152602081019050610294565b50505050905090810190601f1680156102dc5780820380516001836020036101000a031916815260200191505b509250505060405180910390f35b3480156102f657600080fd5b506102ff6106bb565b604051808273ffffffffffffffffffffffffffffffffffffffff1673ffffffffffffffffffffffffffffffffffffffff16815260200191505060405180910390f35b34801561034d57600080fd5b506103566106e1565b604051808273ffffffffffffffffffffffffffffffffffffffff1673ffffffffffffffffffffffffffffffffffffffff16815260200191505060405180910390f35b60055481565b6103a661059b565b610418576040517f08c379a00000000000000000000000000000000000000000000000000000000081526004018080602001828103825260208152602001807f4f776e61626c653a2063616c6c6572206973206e6f7420746865206f776e657281525060200191505060405180910390fd5b3273ffffffffffffffffffffffffffffffffffffffff16600960009054906101000a900473ffffffffffffffffffffffffffffffffffffffff1673ffffffffffffffffffffffffffffffffffffffff1663acfe39886040518163ffffffff1660e01b815260040160206040518083038186803b15801561049757600080fd5b505afa1580156104ab573d6000803e3d6000fd5b505050506040513d60208110156104c157600080fd5b810190808051906020019092919050505073ffffffffffffffffffffffffffffffffffffffff161461053e576040517f08c379a00000000000000000000000000000000000000000000000000000000081526004018080602001828103825260248152602001806107086024913960400191505060405180910390fd5b8173ffffffffffffffffffffffffffffffffffffffff166108fc829081150290604051600060405180830381858888f19350505050158015610584573d6000803e3d6000fd5b505050565b60025481565b60045481565b60035481565b60008060009054906101000a900473ffffffffffffffffffffffffffffffffffffffff1673ffffffffffffffffffffffffffffffffffffffff163373ffffffffffffffffffffffffffffffffffffffff1614905090565b6000809054906101000a900473ffffffffffffffffffffffffffffffffffffffff1681565b60065481565b60018054600181600116156101000203166002900480601f0160208091040260200160405190810160405280929190818152602001828054600181600116156101000203166002900480156106b35780601f10610688576101008083540402835291602001916106b3565b820191906000526020600020905b81548152906001019060200180831161069657829003601f168201915b505050505081565b600760009054906101000a900473ffffffffffffffffffffffffffffffffffffffff1681565b600860009054906101000a900473ffffffffffffffffffffffffffffffffffffffff168156fe6f6e6c79207468652061646d696e2063616e207265736f6c766520636f6e747261637473a2646970667358221220f4be99db9c5974caa42e92595f31ece5bc7ae20e2e40eeca578a5c3f8590b70564736f6c63430006010033",
  "source": "pragma solidity ^0.6.0;\r\n\r\nimport \"./CreateBet.sol\"; \r\n\r\ncontract yesnobet is Ownable {\r\n\r\n    //yesnobet bet = new yesnobet(this, _createproposition, _genesisweight, _genesisodds);\r\n\r\n    string public proposition;\r\n    uint256 public genesisweight;\r\n    uint256 public genesisodds;\r\n    uint256 public genesiscost; //241*(10**14);\r\n    uint256 public gasfee;\r\n    uint256 public adminfee;\r\n    address public betaddress;\r\n    address public admin;\r\n\r\n    CreateBet parentInstance;\r\n\r\n    constructor(CreateBet _parentInstance, string memory _proposition, uint256 _genesisodds, uint256 _gasfee, uint256 _adminfee, uint256 _genesiscost) public payable {\r\n        proposition = _proposition;\r\n        genesisodds = _genesisodds;\r\n        gasfee = _gasfee;\r\n        adminfee = _adminfee;\r\n        genesiscost = _genesiscost;\r\n        betaddress = address(this);\r\n        parentInstance = CreateBet(address(_parentInstance));\r\n    }\r\n\r\n    function payout(address payable _to, uint256 _amount) public onlyOwner {\r\n        require(parentInstance.validatemaster() == tx.origin, \"only the admin can resolve contracts\");\r\n        _to.transfer(_amount);\r\n    }\r\n\r\n    fallback () external payable {\r\n        \r\n    }\r\n\r\n}",
  "sourcePath": "C:\\Users\\mattg\\mothbet6\\src\\contracts\\Bet.sol",
  "compiler": {
    "name": "solc",
    "version": "0.6.1+commit.e6f7d5a4.Emscripten.clang"
  },
  "schemaVersion": "3.4.3",
  "updatedAt": "2022-01-16T17:38:07.688Z",
  "devdoc": {
    "methods": {
      "isOwner()": {
        "details": "Returns true if the caller is the current owner."
      }
    }
  },
  "userdoc": {
    "methods": {}
  }
}